:020000040800F2
:100000000028002021020008710200087102000887
:10001000710200087102000871020008000000006F
:100020000000000000000000000000007102000855
:10003000710200080000000071020008710200084F
:1000400071020008710200087102000871020008C4
:1000500071020008710200087102000871020008B4
:1000600071020008710200087102000871020008A4
:100070007102000871020008710200087102000894
:100080007102000871020008710200087102000884
:100090007102000871020008710200087102000874
:1000A0007102000871020008710200087102000864
:1000B0007102000871020008710200087102000854
:1000C0007102000871020008710200087102000844
:1000D0007102000871020008710200087102000834
:1000E000710200087102000800000000710200089F
:1000F0007102000871020008710200087102000814
:100100007102000871020008710200087102000803
:1001100071020008710200087102000871020008F3
:1001200071020008710200087102000871020008E3
:1001300010B5054C237833B9044B13B10448AFF321
:1001400000800123237010BD0C000020000000007F
:10015000BC02000808B5034B1BB103490348AFF3C9
:10016000008008BD0000000010000020BC02000854
:1001700080B483B000AF274B1A68136843F00403C0
:100180001360254B1A6813686FF3D3431360224B37
:100190001A68136843F4801313601F4B1A681368BE
:1001A0006FF3555313601C4B1A6813686FF3965323
:1001B000136000237B6000237B6002E07B680133D7
:1001C0007B607B6841F287329342F7DD134B1A68FC
:1001D000136843F40053136000237B6002E07B68E4
:1001E00001337B607B6841F287329342F7DD0B4B32
:1001F0001A6813686FF34D33136000237B6002E0CD
:100200007B6801337B607B6841F287329342F7DD84
:10021000CFE700BF080000200400002000000020FD
:100220000D488546AFF300800C480D490D4A002368
:1002300002E0D458C4500433C4188C42F9D30A4A9B
:100240000A4C002301E013600432A242FBD300F009
:1002500011F8FFF78DFFFEE70028002000000020C6
:100260000C000020DC0200080C0000202800002008
:10027000FEE7000070B500250C4E0D4CA41BA41029
:10028000A54209D100F01AF800250A4E0A4CA41B19
:10029000A410A54205D170BD56F825309847013508
:1002A000EEE756F8253098470135F2E7D40200080A
:1002B000D4020008D4020008D8020008F8B500BF34
:1002C000F8BC08BC9E467047F8B500BFF8BC08BC37
:0402D0009E4670478F
:0402D40055010008C8
:0402D80031010008E8
:0C02DC000C08014004080140181002400A
:0400000508000221CC
:00000001FF
