:1000000010100020290000001D0000001D0000004D
:100010001D0000001D0000001D00000080B500AFA5
:1000200000F002F800BF80BD80B586B000AF1A4A6C
:100030001A4BD31ABB601A4B7B61184B3B610023F0
:10004000FB600AE07A69531C7B613B69591C39618A
:1000500012781A70FB680133FB60FB68BA689A4239
:10006000F0D8104A104BD31A7B600F4B3B61002332
:10007000FB6007E03B695A1C3A6100221A70FB687A
:100080000133FB60FB687A689A42F3D800F00EF8FF
:1000900000BF1837BD4680BD1000002000000020C2
:1000A00028020000140400201000002080B400AFDB
:1000B000574B1B6820221A60564B00221A6004E03E
:1000C000544B1B680133534A1360524B1B68B3F502
:1000D000C87FF5D3504B1A68136843F008031360C8
:1000E0004D4B1A68136843F0020313604A4B1A68B9
:1000F000136843F004031360484B1A68136843F015
:1001000008031360454B1A68136843F00403136037
:10011000424B1A68136843F002031360404B1A689D
:10012000136843F0080313603A4B00221A6004E09E
:10013000384B1B680133374A1360364B1B68394A0A
:100140009342F5D9364B1A6813686FF3C3031360F3
:10015000304B00221A6004E02E4B1B6801332D4AFD
:1001600013602C4B1B682F4A9342F5D92C4B1A680D
:10017000136843F002031360264B00221A6004E068
:10018000244B1B680133234A1360224B1B68254A0A
:100190009342F5D9224B1A6813686FF34103136039
:1001A0001C4B00221A6004E01A4B1B680133194AE9
:1001B0001360184B1B681B4A9342F5D9184B1A68F9
:1001C000136843F004031360124B00221A6004E02A
:1001D000104B1B6801330F4A13600E4B1B68114A0A
:1001E0009342F5D90E4B1A6813686FF382031360BC
:1001F000084B00221A6004E0064B1B680133054AD5
:100200001360044B1B68074A9342F5D986E700BF89
:100210000000002010040020080000200C00002036
:08022000040000201FA10700EB
:1002280008E10F40FC5302401C55024000540240B4
:00000001FF
