:020000040800F2
:100000001C100020290000081D0000081D00000829
:100010001D0000081D0000081D00000880B500AF8D
:1000200000F002F800BF80BD80B586B000AF1A4A6C
:100030001A4BD31ABB601A4B7B61184B3B610023F0
:10004000FB600AE07A69531C7B613B69591C39618A
:1000500012781A70FB680133FB60FB68BA689A4239
:10006000F0D8104A104BD31A7B600F4B3B61002332
:10007000FB6007E03B695A1C3A6100221A70FB687A
:100080000133FB60FB687A689A42F3D800F06EF89F
:1000900000BF1837BD4680BD0000002000000020D2
:1000A00040030008040000200000002080B582B05A
:1000B00000AF7860054B00221A707B68142B01D9C1
:1000C00000F000F900BF0837BD4680BD08000020E1
:1000D00080B400AF044B00221A70044B044A1A602B
:1000E00000BFBD4680BC7047100000200C000020FF
:1000F000D100000880B500AF054B02221A70002025
:1001000000F070F8024B01221A7000BF80BD00BFE2
:100110001000002080B500AF054B03221A700120AB
:1001200000F060F8024B01221A7000BF80BD00BFD2
:100130001000002080B500AF034B044A1A60024B48
:100140001B68984700BF80BD0C0000201501000807
:1001500080B500AF034B044A1A60024B1B689847F6
:1001600000BF80BD0C000020F500000880B500AF86
:1001700000F056F8074B084A1A60084B084A1A6004
:10018000084B094A1A60034B1B689847034B1B68CE
:100190009847F8E7180000201D030008140000200D
:1001A000A90200080C000020D100000880B483B030
:1001B00000AF786002E07B68013B7B607B68002BCE
:1001C000F9D100BF0C37BD4680BC704780B400AF8A
:1001D000034B1B68DBB21846BD4680BC704700BFAE
:1001E0000808014080B483B000AF78607B68012BC1
:1001F00006D10A4B1B68094A43F40053136008E018
:100200007B68002B05D1054B1B68044A23F400537F
:10021000136000BF0C37BD4680BC70470C0801401E
:1002200080B400AF0F4B1B680E4A43F00403136009
:100230000D4B1B680C4A23F4700313600A4B0A4AE7
:100240001B681360094B1B68084A23F47003136092
:10025000064B1B68054A43F02233136000BFBD46BE
:1002600080BC70471810024000080140040801409B
:1002700080B500AF094B01221A70FFF769FF40F605
:10028000C410FFF793FF054B00221A70FFF752FFCF
:10029000034B044A1A6000BF80BD00BF120000205B
:1002A00014000020A902000880B500AF044B022210
:1002B0001A70FFF73FFF024B00221A7000BF80BD8B
:1002C0001200002080B400AF034B044A1A6000BF44
:1002D000BD4680BC704700BF1400002071020008BA
:1002E00080B500AF4FF47A60FFF760FFFFF76EFF55
:1002F00003461A46074B1A60074B01221A70054B3A
:100300001B681846FFF7D2FE034B02221A7000BF8B
:1003100080BD00BF000000201100002080B400AFAD
:10032000044B00221A70044B044A1A6000BFBD46F9
:1003300080BC70471100002018000020E102000876
:0400000508000000EF
:00000001FF
