:020000040800F2
:100000000C100020290000081D0000081D00000839
:100010001D0000081D0000081D00000880B500AF8D
:1000200000F002F800BF80BD80B586B000AF1A4A6C
:100030001A4BD31ABB601A4B7B61184B3B610023F0
:10004000FB600AE07A69531C7B613B69591C39618A
:1000500012781A70FB680133FB60FB68BA689A4239
:10006000F0D8104A104BD31A7B600F4B3B61002332
:10007000FB6007E03B695A1C3A6100221A70FB687A
:100080000133FB60FB687A689A42F3D800F00EF8FF
:1000900000BF1837BD4680BD0C00002000000020C6
:1000A0005C0100080C0000200C00002080B483B02C
:1000B00000AF274B1A68136843F004031360254B05
:1000C0001A6813686FF3D3431360224B1A681368DE
:1000D00043F4801313601F4B1A6813686FF3555372
:1000E00013601C4B1A6813686FF396531360002358
:1000F0007B6000237B6002E07B6801337B607B6870
:1001000041F287329342F7DD134B1A68136843F4C8
:100110000053136000237B6002E07B6801337B6047
:100120007B6841F287329342F7DD0B4B1A68136804
:100130006FF34D33136000237B6002E07B68013373
:100140007B607B6841F287329342F7DDCFE700BFE7
:0C01500008000020040000200000002037
:0C015C000C08014004080140181002408B
:0400000508000000EF
:00000001FF
