:1000000010100020290000001D0000001D0000004D
:100010001D0000001D0000001D00000080B500AFA5
:1000200000F002F800BF80BD80B586B000AF1A4A6C
:100030001A4BD31ABB601A4B7B61184B3B610023F0
:10004000FB600AE07A69531C7B613B69591C39618A
:1000500012781A70FB680133FB60FB68BA689A4239
:10006000F0D8104A104BD31A7B600F4B3B61002332
:10007000FB6007E03B695A1C3A6100221A70FB687A
:100080000133FB60FB687A689A42F3D800F00EF8FF
:1000900000BF1837BD4680BD1000002000000020C2
:1000A00058010000140400201000002080B400AFAC
:1000B000234B1B6820221A60224B00221A6004E0A6
:1000C000204B1B6801331F4A13601E4B1B68B3F59E
:1000D000C87FF5D31C4B1A68136843F008031360FC
:1000E0001A4B1A68136843F008031360184B1A6818
:1000F000136843F008031360124B00221A6004E0F7
:10010000104B1B6801330F4A13600E4B1B68114ADA
:100110009342F5D90E4B1A6813686FF3C30313604B
:10012000084B00221A6004E0064B1B680133054AA5
:100130001360044B1B68074A9342F5D9D6E700BF0A
:100140000000002010040020080000200C00002007
:08015000040000201FA10700BC
:1001580008E10F40FC5302401C5502400054024085
:00000001FF
